:0200000080136B
:0200030001EB0F
:02000B0001AB47
:0700130001EF75260A8019B8
:100030007581077528007527007525007589017C75
:10004000647D01D2AFD28DD2A9D2AAD2A878307560
:1000500029007950E5299001B693F6E52990019A97
:1000600093F709080529B850EB784D7930901F00B7
:100070001182901000118280F27F02AEFADEFEDF64
:10008000FA227521017A08C083C082E521F0E79049
:100090004000F009E7909000F0091179D082D083F8
:1000A000E52123F521DAE07400F022C28C758CDCA6
:1000B000758A00D28CDC157C01DD11AD26E528B4F3
:1000C0001C08A88176001876303211CD32C001E5C7
:1000D000279000FA93F6052774502528F9E7F525AF
:1000E000D52503180528A725D0012275263232759B
:1000F000260AA8817600187630323C383020007805
:10010000706040007E7C7870604000FCF8F0E0C0D9
:100110008000FEFCF8F0E0C08000FEFCF8F0E0C0DB
:100120008000FEFCF8F0E0C08000FEFCF8F0E0C0CB
:100130008000FEFCF8F0E0C08000FEFCF8F0E0C0BB
:100140008000FEFCF8F0E0C08000FEFCF8F0E0C0AB
:100150008000FEFCF8F0E0C08000FEFCF8F0E0C09B
:100160008000FCF8F0E0C080007E7C787060400089
:10017000F8F0E0C080003E3C38302000F0E0C08065
:10018000001E1C181000E0C080000E0C0800C0808B
:1001900000060400800002000000050507070808AB
:1001A00008080808080808080707060605050404E3
:1001B0000303020201010000018003C007E00FF009
:1001C0001FF83FFC7FFEFFFFFFFFFFFFFFFFFFFF6A
:0601D000FE7F7C3E0000F2
:00000001FF
