:100338002020120000018003C007E00FF01FF83FE3
:10034800FC7FFEFFFFFFFFFFFFFFFFFFFFFE7F7C3D
:100358003E00001C320505070708080808080808B9
:100368000808080707060605050404030302020136
:0503780001027100000C
:10037E00E4FDFCC3ED9FEE6480F8EC6480985015AC
:10038E00E4FBFA0BBB00010AEB64734A70F50DBD7A
:05039E0000010C80DEEF
:0103A3002237
:020266008F7394
:100268007901E4F574F575E5737007901F00E9F0FE
:100278008005901000E9F07412250DF8E690400012
:10028800F0050DE50D7002050C2412F8E6909000BB
:10029800F0050DE50D7002050C7F017E0012037E4E
:1002A800E925E0F90575E57570020574C39408E55C
:1002B800746480948040B0E4F9E5737005901F0081
:0702C800F022901000E9F0A4
:0102CF00220C
:1000BF007432250BF8E6F508AF0BAE0A1200038F6A
:1000CF000EAE0AAF0B7C007D021201DBED4C70040B
:1000DF00743380027431250BF8E6C39508F509E4F3
:1000EF00F50FE50FC39509500AE50E25E0F50E054E
:1000FF000F80EFAF0BC3741D9F2412F8E6FEE50EC1
:10010F00F45EF674322FF8167432250BF8E6F4709D
:10011F002EAE0AAF0BFC7D021201DBED4CAF0B7064
:10012F00047433800274312FF8E6FE74322FF8A670
:10013F0006050BE50B7002050A756F007570052239
:10000300EE60030200B5EFB41C0040030200B5909C
:100013000019F828287302006D02006F0200A30282
:1000230000710200A30200A30200A30200A30200C6
:10003300A30200A30200A30200A30200A30200A3E1
:100043000200730200A302007B0200A302008302EA
:1000530000A302008B0200A30200930200A302008C
:100063009B0200A30200A50200A38004800A800073
:10007300757300757402803F75730075740480375F
:10008300757300757408802F75730075741080275D
:10009300757300757420801F757300757440801725
:1000A3008008757300757480800D75730075740115
:0B00B3008005E4F573F574AE73AF74C4
:0100BE00221F
:1003A400E4F510F511AF11744E2FF8E6FE74122F18
:1003B400F8A6060511E511700205106420451070B9
:0403C400E40200004F
:1002D000E4F50AF50BF510F511AF1174122FF8E6DD
:1002E000FE744E2FF8A6060511E511700205106484
:1002F00020451070E4E4F50CF50DFF1202667F0155
:100300001202660572E572700205716434457170FF
:10031000E4F5717572330570E5707002056F64065F
:10032000456F70D1F56FF5701200BFE50B641C4589
:080330000A70C21203A480BD93
:0300000002014FAB
:0C014F00787FE4F6D8FD758175020196FA
:1001DB00C2D5EC30E709B2D5E4C39DFDE49CFCEE3F
:1001EB0030E715B2D5E4C39FFFE49EFE120211C3A4
:1001FB00E49DFDE49CFC800312021130D507C3E49F
:06020B009FFFE49EFE22AD
:10015B000202D0E493A3F8E493A34003F68001F2E8
:10016B0008DFF48029E493A3F85407240CC8C333A5
:10017B00C4540F4420C8834004F456800146F6DF74
:10018B00E4800B0102040810204080900338E47EC9
:10019B00019360BCA3FF543F30E509541FFEE49369
:1001AB00A360010ECF54C025E060A840B8E493A330
:1001BB00FAE493A3F8E493A3C8C582C8CAC583CA5B
:1001CB00F0A3C8C582C8CAC583CADFE9DEE780BE13
:01037D00007F
:10021100BC000BBE0029EF8DF084FFADF022E4CCD1
:10022100F875F008EF2FFFEE33FEEC33FCEE9DEC9A
:10023100984005FCEE9DFE0FD5F0E9E4CEFD22EDE0
:10024100F8F5F0EE8420D21CFEADF075F008EF2F2A
:10025100FFED33FD4007985006D5F0F222C398FD1B
:050261000FD5F0EA22B8
:00000001FF
